:060000000A128A11122809
:10000800FE00030E83120313A0000408A1000A08CF
:10001800A2007F08A3000A128A15B32A0A128A11BD
:1000280015288317DB30FD001630FE00AF30FF00C7
:10003800D33084000A168A1116270A128A119030C2
:100048008400CB300A168A11A7260A128A11831354
:10005800A0308400D2300A168A11A7260A128A1103
:10006800643084006C300A168A11A7260A128A1195
:10007800FD0183010A128A150028FF0000308A005A
:100088007F08820746280A128A154B280A128A1105
:10009800EB2E0A168A119B2E0A168A11962E8312A7
:1000A800031305160A168A1151270A128A11831298
:1000B8000313270883160313CF008312031326089C
:1000C80083160313CE008312031325088316031324
:1000D800CD0083120313240883160313CC000030C9
:1000E80083120313A7000030A6000030A5000530D6
:1000F800A400831603134F0883120313AB0083165F
:1001080003134E0883120313AA00831603134D0822
:1001180083120313A900831603134C0883120313D5
:10012800A8000A128A15E7240A128A1183120313F7
:10013800240883160313480783120313C0000030F2
:10014800031801302507C2010318C20A83160313D6
:10015800490783120313C1000318C20A260842077D
:10016800C3010318C30A831603134A078312031330
:10017800C2000318C30A27084307831603134B0753
:1001880083120313C300400983160313B0008312BC
:100198000313410983160313B100831203134209A1
:1001A80083160313B2008312031343098316031340
:1001B800B300B00A0319B10A0319B20A0319B30A42
:1001C800831603174E0883120313B600831603170A
:1001D8004D0883120313B500831603174C088312C6
:1001E8000313B400831603174B0883120313B300D9
:1001F8000030BA000030B9000030B8000330B70052
:100208000A128A15C6210A128A11831203133608A4
:10021800CB003508CA003408C9003308C800831663
:10022800031330083C0783120313C000003003187F
:10023800013083160313310783120313C201031815
:10024800C20A831603133D0783120313C100031860
:10025800C20A831603133208831203134207C30129
:100268000318C30A831603133E0783120313C2003D
:100278000318C30A831603133308831203134307AF
:10028800831603133F0783120313C3004308B60002
:100298004208B5004108B4004008B3004B08BA0052
:1002A8004A08B9004908B8004808B7000A128A1570
:1002B800C6210A128A118312031333088316031303
:1002C800C00783120313340803110318013E0319EE
:1002D800702983160313C10783120313350803110A
:1002E8000318013E03197B2983160313C2078312DF
:1002F8000313360803110318013E031986298316D0
:100308000313C307831203138316031340088312CE
:100318000313C00083160313410883120313C1009B
:1003280083160313420883120313C20083160313B0
:10033800430883120313C3000A30C400430DC30CDF
:10034800C20CC10CC00CC40BA229430883160313AA
:10035800C70083120313420883160313C6008312CF
:100368000313410883160313C500831203134008BF
:1003780083160313C400C71BD2294708031DD329BA
:100388004608031DD32904304502031DCF29013037
:100398004402031DCF29031CD229D329DE290030AA
:1003A80083160313C7000030C6000430C5000030B0
:1003B800C400002A83160313C71FF529FF3047021C
:1003C800031DF229FF304602031DF229FC304502C5
:1003D800031DF22900304402031DF2290318F529F0
:1003E800F629002AFF3083160313C700FF30C60022
:1003F800FC30C5000030C400003083120313A7008E
:100408000030A6000030A5000630A40083160313B0
:100418002C0883120313C000831603132D088312BC
:100428000313C100831603132E0883120313C2009B
:10043800831603132F0883120313C30083160313B1
:100448004C0883120313C002831603134D08031CC0
:100458004D0F2F2A322A83120313C1028316031366
:100468004E08031C4E0F392A3C2A83120313C2027A
:10047800831603134F08031C4F0F432A462A83127F
:100488000313C30283160313831203134308AB0039
:100498004208AA004108A9004008A8000A128A15C3
:1004A800E7240A128A11831203132708B6002608C4
:1004B800B5002508B4002408B300831603133B08CD
:1004C80083120313BA00831603133A088312031323
:1004D800B90083160313390883120313B80083166F
:1004E8000313380883120313B7000A128A15C621AA
:1004F8000A128A11831203133608CB003508CA0082
:100508003408C9003308C80083160313440883124B
:100518000313C00083160313450883120313C10095
:1005280083160313460883120313C20083160313AA
:10053800470883120313C300831603175208831254
:100548000313B60083160317510883120313B5006B
:1005580083160317500883120313B4008316031776
:100568004F0883120313B30083160313330883124F
:100578000313BA0083160313320883120313B90056
:1005880083160313310883120313B8008316031369
:10059800300883120313B7000A128A15C6210A12FB
:1005A8008A11831203133308C4003408C5003508C0
:1005B800C6003608C7004B08B6004A08B500490807
:1005C800B4004808B3000030BA000030B900033066
:1005D800B800E830B7000A128A15C6210A128A1133
:1005E800831203133308C40734080318340FFD2A91
:1005F800FE2AC50735080318350F032B042BC60739
:1006080036080318360AC7074408C0074508031800
:10061800450F0F2B102BC10746080318460F152B43
:10062800162BC20747080318470AC307430883164F
:100638000313B70083120313420883160313B6008B
:1006480083120313410883160313B500831203139F
:10065800400883160313B400370883120313A70056
:1006680083160313360883120313A6008316031395
:10067800350883120313A500831603133408831265
:100688000313A4000A128A150B230A128A11831273
:1006980003132508E5002408E4008B136508A5006A
:1006A8006408A4000A128A1566230A128A118B1795
:1006B800831603133308BF003208BE003108BD009B
:1006C8003008BC004F08AF004E08AE004D08AD0022
:1006D8004C08AC0083120313051208008316031399
:1006E800E3000030E2000030E1000030E0000030BC
:1006F800DF000030DE000030DD000030DC000130BB
:10070800DB000030D5000030D4000030D3000130C9
:10071800D200D601E401630884002D308317000657
:10072800031D972B982BA22BFF30D500FF30D40048
:10073800FF30D300FF30D200E401E40A0A3064023B
:10074800031CA72BA82BA92B7F2D640863078312F2
:100758000313DE005E08840083170008031DB52B11
:10076800B62BB72B7F2D83160313640863078312F8
:100778000313DE005E088400303000020318C52B26
:10078800C62BE52B83160313640863078312031330
:10079800DE005E0884003A300002031CD42BD52BFF
:1007A800E52B831603136408630783120313DE0023
:1007B8005E0884002E3000060319E32BE42BE52B9A
:1007C8007F2D831603136408630783120313DE0067
:1007D8005E0884002E300006031DF32BF42B012C39
:1007E800003083160313DE000030DD000030DC002B
:1007F8000030DB00D601D60A7A2D8316031364086D
:10080800630783120313DE005E08840000080F39B3
:10081800DF00E001E101E201620883160313DA0058
:1008280083120313610883160313D9008312031379
:10083800600883160313D800831203135F08831616
:100848000313D700560303192A2C2B2CB12C62084A
:1008580083120313AF008316031361088312031373
:10086800AE0083160313600883120313AD008316CA
:1008780003135F0883120313AC000A128A1584213C
:100888000A128A11831203132C08B5002D08B6002A
:100898002E08B7000030B2002030B3004130B40059
:1008A8000A128A1544260A128A118312031332087F
:1008B800C4003308C5003408C600831603135A0859
:1008C80083120313AF00831603135908831203130B
:1008D800AE0083160313580883120313AD00831662
:1008E8000313570883120313AC000A128A158421D4
:1008F8000A128A11831203132C08C1002D08C200A2
:100908002E08C3000A128A11BF250A128A118312FF
:1009180003134108CD004208CE004308CF000A1255
:100928008A155F240A128A1183120313500883164A
:100938000313E200831203134F0883160313E10025
:10094800831203134E0883160313E0008312031364
:100958004D0883160313DF007A2D5A0883120313F8
:10096800B60083160313590883120313B5008316C0
:100978000313580883120313B4008316031357088C
:1009880083120313B300831603135E088312031341
:10099800BA00831603135D0883120313B900831684
:1009A80003135C0883120313B800831603135B0850
:1009B80083120313B7000A128A15C6210A128A1174
:1009C800831203133308831603135F078312031379
:1009D800DE000030031801303407E0010318E00A94
:1009E80083160313600783120313DF000318E00A5A
:1009F80035086007E1010318E10A8316031361074C
:100A080083120313E0000318E10A3608610783160E
:100A18000313620783120313E100610883160313AB
:100A2800E20083120313600883160313E1008312A4
:100A380003135F0883160313E000831203135E0891
:100A480083160313DF005E0883120313AF008316B7
:100A580003135D0883120313AE00831603135C08A7
:100A680083120313AD00831603135B088312031369
:100A7800AC000A128A1584210A128A118312031300
:100A88002C08B5002D08B6002E08B700CD30B200EE
:100A9800CC30B3003D30B4000A128A1544260A123D
:100AA8008A11831203133208CD003308CE003408AC
:100AB800CF000A128A155F240A128A1183120313BF
:100AC800500883160313DE00831203134F0883169E
:100AD8000313DD00831203134E0883160313DC008F
:100AE800831203134D0883160313DB000130FF0044
:100AF8007F08E407A22B83160313620883120313EB
:100B0800B60083160313610883120313B500831616
:100B18000313600883120313B400831603135F08DA
:100B280083120313B30083160313550883120313A8
:100B3800BA0083160313540883120313B9008316EB
:100B48000313530883120313B800831603135208C0
:100B580083120313B7000A128A15C6210A128A11D2
:100B6800831203133608DD003508DC003408DB0087
:100B78003308DA000800831203134108C70042084B
:100B8800C8004308C9000310480D490DCC004408AB
:100B9800C7004508C8004608C9000310480D490D9C
:100BA800CB004C080319D92DDA2DEA2D4B084C023D
:100BB8000318DF2DE02DF12D4B08C7004C08C702A4
:100BC80019304702031CE92DEA2DF12D4408C10014
:100BD8004508C2004608C300EA2E4B080319F52D44
:100BE800F62D062E4C084B020318FB2DFC2D072E64
:100BF8004C08C7004B08C70219304702031C052ED2
:100C0800062E072EEA2E0630CA00C31F0C2E0D2E04
:100C18000E2ECA17C61F112E122E132E4A17C217D0
:100C2800FF30C105FF30C2050030C305C517FF30CE
:100C3800C405FF30C5050030C6054B084C02031833
:100C4800262E272E532E01300310C40DC50DC60DB8
:100C5800FF3E031D282E0130CB024B084C0603191A
:100C6800362E372E4C2E0130CA024A080739031D8A
:100C78003E2E3F2E272E4C2E01300310C30CC20CE3
:100C8800C10CFF3E031D412E0130FF007F08CC0739
:100C98004C084B06031D512E522E402E842E4C0814
:100CA8004B020318582E592E842E01300310C10D03
:100CB800C20DC30DFF3E031D5A2E0130CC024B0856
:100CC8004C060319682E692E7E2E0130CA024A0886
:100CD8000739031D702E712E592E7E2E01300310F8
:100CE800C60CC50CC40CFF3E031D732E0130FF005B
:100CF8007F08CB074C084B06031D832E842E722ECB
:100D0800CA1F872E882E982EFF30C106FF30C206D4
:100D1800FF30C3060130C107003003180130C20795
:100D2800003003180130C3074A1F9B2E9C2EAC2E9F
:100D3800FF30C406FF30C506FF30C6060130C407C1
:100D4800003003180130C507003003180130C6070A
:100D5800CA014108C407420803110318420A0319CB
:100D6800B62EC507430803110318430A0319BD2EFD
:100D7800C607C61FC02EC12ED32EFF30C406FF30B3
:100D8800C506FF30C6060130C4070030031801301D
:100D9800C507003003180130C607CA01CA0A44084B
:100DA800A4004508A5004608A6004C08A7004A0864
:100DB800A8000A128A15E1230A128A118312031362
:100DC8002408C1002508C2002608C30008000A122A
:100DD8008A151B270A128A11C03084008312031354
:100DE800273083160313E5000408E6000B30E700FC
:100DF8006508840083130008E800E50A6608840093
:100E0800831768088000E60AE70BFC2E8316031791
:100E180040080319102F112FB52FC1300A128A115B
:100E280072230A128A11831203135D0883160313AF
:100E3800A700831203135C0883160313A60083120A
:100E480003135B0883160313A500831203135A08C0
:100E580083160313A400B52F270883120313A700D2
:100E680083160313260883120313A600831603139D
:100E7800250883120313A50083160313240883127D
:100E88000313A4000A168A119C270A128A11D52F67
:100E9800003083120313A7000030A6000030A5001D
:100EA8000030A4000A168A11CE270A128A110A16DF
:100EB8008A11FF260A128A11D52F270883120313D5
:100EC800A70083160313260883120313A6008316AC
:100ED8000313250883120313A5008316031324089C
:100EE80083120313A4000A168A11B5270A128A115D
:100EF800D52F270883120313A70083160313260888
:100F080083120313A6008316031325088312031301
:100F1800A50083160313240883120313A4000A16DA
:100F28008A1183270A128A11D52F270883120313DF
:100F3800A70083160313260883120313A60083163B
:100F48000313250883120313A5008316031324082B
:100F580083120313A4000A168A116A270A128A1137
:100F6800D52F83160317400883160313E500E601FF
:100F78006608003A0319C12FD52F6508003A0319EE
:100F8800D52F013A0319302F033A03194C2F013A90
:100F98000319612F073A03197D2F013A0319992F75
:100FA800D52F080083120313A600703026060319F4
:100FB800DE2FDF2FF72F683026060319E42FE52FE1
:100FC800F72F673026060319EA2FEB2FF72F693022
:100FD80026060319F02FF12FF72F64302606031D7C
:100FE800F62FF72FFC2F0130A4000030A500FE2FAC
:060FF800A401A5010800A0
:101000000A168A11D5260A128A158B170A128A1512
:1010100084250A128A1506280A128A1112288312B8
:101020000313A4012408A53E84008317800124082B
:10103000B23E840080010130FF007F08A4070A301F
:101040002402031C24282528122883160317AF0125
:10105000B00183120313E80108002A30831603133A
:1010600099001815831603178715831603139A0121
:101070001812831203139817181698128316031365
:101080000C128C12181383120313181383160313F4
:101090009812981608006328981C4F285028582842
:1010A0008316031398129816831203131812181636
:1010B000181D5B285C2862281A08E70083160313B2
:1010C000981298166400831203130C1E682869286E
:1010D0004C282408990008000630FF007F0883167A
:1010E00003138704FF3092000C3083120313970020
:1010F0000C309D009501171297129B011D129D1235
:101100008C10043092008C1C862887288328F930A4
:10111000FF007F088316031387050800831203135B
:10112000A6000A306802031C962897289A28A40172
:10113000A501B6282D30260603199F28A028B2281D
:101140002E3026060319A528A628B22830302602FC
:10115000031CAB28AC2897283A3026020318B12884
:10116000B22897280130A4000030A500080083129F
:101170000313A40070302406031DBF28C028C22812
:101180000130E32868302406031DC728C828CA2870
:101190000230E32867302406031DCF28D028D22848
:1011A0000330E32869302406031DD728D828DA281D
:1011B0000430E32864302406031DDF28E028E228F9
:1011C0000530E32800300800CF30FF007F08831689
:1011D00003138505E130FF007F0883160317880598
:1011E000CF30FF007F0883120313850585165F301B
:1011F000831603138600831603178901583083165C
:10120000031396008B159E308700D830831203138A
:1012100081004630831603138100403095008B1601
:101220000800003083160313C3000030C2000030F2
:10123000C1000030C0000030BF000030BE000030F0
:10124000BD000030BC000030CF000030CE000030C8
:10125000CD000030CC00003083160317D2000030E0
:10126000D1000030D0001430CF00003083160313BB
:10127000BB000030BA000030B9000030B8000030C8
:1012800083160317CE000030CD000030CC000530AF
:10129000CB000800073083120313A40027080A16A6
:1012A0008A113A270A128A15903E8400831203138A
:1012B0002908831780000730A40027080A168A111E
:1012C0003A270A128A15913E8400831203132A08D2
:1012D00083178000840A2B0880000730A4002708A9
:1012E0000A168A113A270A128A15933E84000030A2
:1012F00083178000840A00308000840A0030800058
:10130000840A00308000080083120313B1018E307C
:10131000B000AF1F8C298D29A829AC09AD09AE09F1
:10132000AF09AC0A0319AD0A0319AE0A0319AF0AD3
:10133000B101B10AA82901300310AF0CAE0CAD0CFD
:10134000AC0CFF3E031D9C290130FF007F08B00755
:10135000FF302F05031DAD29AE299B292C08A400C1
:101360002D08A5002E08A6003008A7003108A80007
:101370000A128A15E1230A128A158312031324081C
:10138000AC002508AD002608AE000800003083122E
:101390000313BF000030BE000030BD000030BC00B1
:1013A000331CD329D429EB293708BC07380803118B
:1013B0000318013E0319DD29BD073908031103187D
:1013C000013E0319E429BE073A0803110318013E40
:1013D0000319EB29BF070130BB000310B70DB80D8F
:1013E000B90DBA0DBB0BED2901300310B60CB50CCD
:1013F000B40CB30CFF3E031DF52936083504340444
:101400003304031D042A052AD0293F08B6003E08EC
:10141000B5003D08B4003C08B30008000A128A1564
:1014200011210A128A150A128A156C200A128A15CD
:101430000A168A11CA260A128A150A168A11EE2677
:101440000A128A1561300A168A11A1260A128A1513
:10145000003083120313A700A8000730A90006304C
:10146000AA000030AB000A128A154A210A128A1516
:10147000013083120313A7000030A8000430A90034
:101480000130AA000030AB000A128A154A210A1264
:101490008A15023083120313A7000030A8000A3017
:1014A000A900D030AA000730AB000A128A154A21E1
:1014B0000A128A150800FA007A08F600740A622AED
:1014C0000310F60CFF3E031D602A76080339FB006B
:1014D0007508031D6C2A6D2A8B2A7B08F0007D0895
:1014E0000A168A1125270A128A1583160313A007E4
:1014F000FF018039031DFF037F0803187F0A031DC6
:10150000A1077F0803187F0A031DA2077F0803189D
:101510007F0AA307B02A7B08F0007D080A168A110B
:1015200025270A128A15F6000030F61BFF30F70057
:10153000F800F900760883160313A0027708031C4D
:10154000770FA32AA42AA1027808031C780FA92ADE
:10155000AA2AA2027908031C790FAF2AB02AA30293
:101560007B08FD0008008B1EB62AB72AE92A0B1D4E
:10157000BA2ABB2AE92A013083160313D0070318BD
:10158000D10A0030D1075108803AFF0081307F0234
:10159000031DCC2AF5305002031CCF2AD02AD42AAE
:1015A00083160313D001D101013083160313A8075A
:1015B000003003180130A907003003180130AA07D2
:1015C000003003180130AB07D830831203138100B9
:1015D0000B118B1DEC2AED2AFE2A0B1CF02AF12A96
:1015E000FE2A0608FC000330F400F501F50A7C0829
:1015F0000A128A155B220A128A150B108312031332
:101600002308FF0022088A0021088400200E83009E
:10161000FE0E7E0E0900831203132508E500240840
:10162000E4006508803AFF0080307F02031D1A2B1A
:1016300001306402031C1D2B1E2B292B8312031364
:101640006408963EE40065080318013E003EE5008C
:10165000372B83120313E51F2E2B2F2B372B6408F8
:101660006A3EE40065080318013EFF3EE500650898
:10167000803AFF0083307F02031D402BE930640273
:10168000031C432B442B4A2BE83083120313E40042
:101690000330E500831203136508803AFF007C30B5
:1016A0007F02031D552B183064020318582B592B49
:1016B0005F2B183083120313E400FC30E500831223
:1016C00003136508A5006408A4000800831203132F
:1016D000A51B6B2B6C2BA32BFC302405A80003301F
:1016E0002505A9002908A7002808A600270DA70C92
:1016F000A60C270DA70CA60C260895000330240580
:10170000A80000302505A9002818872B8B2B8312F1
:10171000031317168E2B8312031317122908A70021
:101720002808A600270DA70CA60C2618982B9C2B82
:101730008312031397169F2B8312031397129B0197
:101740001D129D12E02B2409A6002509A700A60A58
:101750000319A70AFC302605A80003302705A900B5
:101760002908A7002808A600270DA70CA60C270DFE
:10177000A70CA60C26089B0003302405A800003007
:101780002505A9002818C52BC92B831203131D1684
:10179000CC2B831203131D122908A7002808A600CA
:1017A000270DA70CA60C2618D62BDA2B83120313B1
:1017B0009D16DD2B831203139D12950117129712AC
:1017C00008008312031327080319E72BE82BEF2BDC
:1017D000260825042404031DEE2BEF2B022C0030D9
:1017E000A4000030A5000030A6005E2C0130FF00F0
:1017F0007F08A70701300310A60CA50CA40CFF3E20
:10180000031DFB2BFE302605031D072C082CF62B91
:101810001F2C0130FF007F08A7070130A40700300C
:1018200003180130A507003003180130A607013066
:101830000310A60CA50CA40CFF3E031D182CFF30B2
:101840002605031D242C252C092C302C0130A70241
:1018500001300310A40DA50DA60DFF3E031D292C7C
:10186000A51B332C342C3A2C023027020318392CB8
:101870003A2C262C27183D2C3E2C442CFF30A40556
:101880007F30A505FF30A6050310A70C2708A90087
:10189000AA01AB0110300310A90DAA0DAB0DFF3E3C
:1018A000031D4B2C2908A4042A08A5042B08A60410
:1018B000280803195C2C5D2C5E2CA61708008312E7
:1018C00003134D08D1004E08D2004F08D300031077
:1018D000520D530DD9005908031D6F2C702C792C13
:1018E0000030D0000030CF000030CE000030CD00FE
:1018F000E62C4D08D1004E08D2004F08D300173017
:101900000310D30CD20CD10CFF3E031D802C5108C8
:10191000D400CE17FF30CD05FF30CE050030CF0507
:101920004D08D5004E08D6004F08D700D8018E309C
:10193000D902D91F9C2C9D2CB72C5908803A8F3E78
:101940000318A32CA42CA52C702C01300310D80C48
:10195000D70CD60CD50CFF3E031DA62C0130FF0082
:101960007F08D907031DB52CB62CA52CCE2C18301A
:101970005902031CBC2CBD2CC92C702C0130D10089
:101980000310D50DD60DD70DD80DD10BC02C0130BD
:10199000D9025908031DCD2CCE2CBE2C5408031996
:1019A000D22CD32CDE2CD509D609D709D809D50AD3
:1019B0000319D60A0319D70A0319D80A5808D00000
:1019C0005708CF005608CE005508CD0008008312F6
:1019D0000313AE01A71FED2CEE2CFB2CA409A509C7
:1019E000A609A709A40A0319A50A0319A60A031937
:1019F000A70AAE01AE0AAB1FFE2CFF2C0E2DA809C4
:101A0000A909AA09AB09A80A0319A90A0319AA0A6C
:101A10000319AB0A0130FF007F08AE060030B200A8
:101A20000030B1000030B0000030AF0027082604BD
:101A30002504240403191D2D1E2D6B2DAD01AD0AA7
:101A40002E2D0130AC000310A40DA50DA60DA70D81
:101A5000AC0B232D0130FF007F08AD07A71F312DF0
:101A6000322D212D0130AC000310AF0DB00DB10DA2
:101A7000B20DAC0B342D27082B02031D492D26086F
:101A80002A02031D492D25082902031D492D24087A
:101A90002802031C4C2D4D2D5C2D2408A80225087E
:101AA000031C250FA9022608031C260FAA022708DB
:101AB000031C270FAB022F1401300310A70CA60C38
:101AC000A50CA40CFF3E031D5D2D0130AD02031DCE
:101AD0006A2D6B2D322D2E0803196F2D702D7B2D45
:101AE000AF09B009B109B209AF0A0319B00A031965
:101AF000B10A0319B20A3208A7003108A60030085B
:101B0000A5002F08A400080083120313E301073087
:101B1000A40063080A168A113A270A128A15933E0E
:101B200084008317000883160317DB00840A00086B
:101B3000DC00840A0008DD00840A0008DE00831649
:101B40000313280883160317DF00831603132908DD
:101B500083160317E000831603132A08831603175E
:101B6000E100831603132B0883160317E2005B08BA
:101B7000DF025C08031C5C0FBE2DBF2DE0025D0878
:101B8000031C5D0FC42DC52DE1025E08031C5E0F12
:101B9000CA2DCB2DE2026208BF006108BE006008BA
:101BA000BD005F08BC00073083120313A400630864
:101BB0000A168A113A270A128A15913E8400831761
:101BC000000883160317DB00840A0008DC005B08AA
:101BD000DD005C08DE000030DE1BFF30DF00E000CF
:101BE0006008803AFF003F08803A7F02031D022E02
:101BF0003E085F02031D022E3D085E02031D022EF9
:101C00003C085D020318052E062E372E073083127E
:101C10000313A40063080A168A113A270A128A15C8
:101C2000903E84008317000883120313E6006608C1
:101C30000A128A1141200A128A15073083120313EF
:101C4000A40063080A168A113A270A128A15933EDD
:101C5000840083160313280883178000840A290848
:101C60008000840A2A088000840A2B088000013042
:101C7000FF007F0883120313E30703306302031C92
:101C8000422E432E872D0800831203133208B8001A
:101C90003308B9003408BA000310390D3A0DBB00FF
:101CA0003B08031D542E552E5C2E0030B200003030
:101CB000B3000030B4001A2F3508B8003608B90058
:101CC0003708BA000310390D3A0DC0004008031D53
:101CD0006A2E6B2E722E0030B2000030B30000303E
:101CE000B4001A2F40087B3EFF007F08BB07320874
:101CF000B8003308B9003408BA0010300310BA0C29
:101D0000B90CB80CFF3E031D7E2E3808C000350804
:101D1000B8003608B9003708BA0010300310BA0C02
:101D2000B90CB80CFF3E031D8E2E3808FF007F084B
:101D3000C0068030FF007F08C005B317B617FF301C
:101D4000B505FF30B6050030B7050030BC000030E7
:101D5000BD000030BE000730BF00321CB02EB12ED7
:101D6000C12E3508BC07360803110318360A0319BB
:101D7000BA2EBD07370803110318370A0319C12EFD
:101D8000BE0701300310B40CB30CB20CFF3E031DB0
:101D9000C22E01300310B50DB60DB70DFF3E031D69
:101DA000CA2E0130BF02031DD62ED72EAD2E09300C
:101DB000BF00321CDC2EDD2EED2E3508BC073608A8
:101DC00003110318360A0319E62EBD07370803115D
:101DD0000318370A0319ED2EBE0701300310B40CA7
:101DE000B30CB20CFF3E031DEE2E01300310BE0CEF
:101DF000BD0CBC0CFF3E031DF62E0130BF02031DBF
:101E0000022F032FD92E3C08A4003D08A5003E0850
:101E1000A6003B08A7004008A8000A128A15E12383
:101E20000A128A15831203132408B2002508B3008E
:101E30002608B40008000430831203136906031D4A
:101E4000222F232F242FE90183160317B1010A162D
:101E50008A11C0260A128A1583120313B700370AA3
:101E60000319332F342FE22F3708A4000A128A15E2
:101E70004B200A128A15CA2F3A303706031D412F0C
:101E8000422F452FE901E90AE72F0A168A11B726E2
:101E90000A128A15E72F37086A06031D502F512FA3
:101EA000452F0A128A150F200A128A150230831252
:101EB0000313E900E72F37080A128A11D6270A12FE
:101EC0008A1583120313240825040319682F692F28
:101ED000452F37080A168A11E0260A128A150330A0
:101EE00083120313E900E72F3B303706031D792FD8
:101EF0007A2FB52F8316031725080A128A15B720E3
:101F00000A128A1583160317B1000A3083120313CD
:101F1000A4000A128A154B200A128A158312031391
:101F2000B6013608A63E840083170008FF00360875
:101F3000B23E84007F0880003608B23E840000086C
:101F4000A4000A128A154B200A128A150130FF00DC
:101F50007F0883120313B60709303602031CB12F22
:101F6000B22F912F0430E900E72F37080A128A15A3
:101F70008E200A128A1583120313240825040319DC
:101F8000C22FC32F452F37080A168A11E0260A12DE
:101F90008A15E72F831203136908B200B3013308CF
:101FA000003A0319D42F452F3208003A03193C2F69
:101FB000013A03194B2F033A03195B2F013A031916
:101FC000742F452F0A168A11E7270A128A1527301F
:101FD0008400B13083120313B2000408B3000B3045
:101FE000B4003208840083170008B500B20A330831
:101FF0008400831335088000B30AB40BF12F080066
:1020000010308A000408840A820700340034013446
:10201000FF340034FF340034003401340134003420
:102020000034FF340034FF34013400342534643488
:082030002E3425346434003421
:102D2C00203083120313860608000A128A115320DE
:102D3C000A168A11080083120313A4002408EA005F
:102D4C00080064008001840A040603190034040698
:102D5C00A82E06340034003400340334003400341C
:102D6C00003483120313E9010A128A150F200A1684
:102D7C008A110800831203138C1EC52EC62EC82E72
:102D8C001A08C92EFF300800003083160313A30065
:102D9C000030A2000030A1000030A00008000A1290
:102DAC008A15E4200A168A110A128A150E220A16AE
:102DBC008A11080083120313A4006808A53E84003E
:102DCC002408831780000130FF007F08E807080003
:102DDC0083120313E90183160317B1010A128A1532
:102DEC000F200A168A110A128A152D200A168A112A
:102DFC000800003083160313C3000030C2000030FB
:102E0C00C1000030C0000030BF000030BE000030F8
:102E1C00BD000030BC0008007E088A007F088200DC
:102E2C000A168A1112270A168A118000840A0408CD
:102E3C007D0603190034FF0A0319FE0A162FF3004E
:102E4C007308F10002300310F10DFF3E031D292F12
:102E5C0001307107F2007008720784000A168A119B
:102E6C0000200A168A11080083120313A600A5017C
:102E7C00261C412F422F462F2408FF007F08A50750
:102E8C000310A40D0310A60C2608031D4E2F4F2F64
:102E9C003E2F2508080083160313230883120313FF
:102EAC00A70083160313220883120313A6008316AC
:102EBC000313210883120313A500831603132008A0
:102ECC0083120313A400080083120313270883162C
:102EDC000313BB0083120313260883160313BA00D3
:102EEC0083120313250883160313B90083120313EB
:102EFC00240883160313B800080083120313270851
:102F0C0083160317CE0083120313260883160317A8
:102F1C00CD0083120313250883160317CC008312EC
:102F2C000313240883160317CB0008008312031322
:102F3C00270883160313CB0083120313260883166A
:102F4C000313CA0083120313250883160313C90045
:102F5C0083120313240883160313C800080083127A
:102F6C000313270883160317D200831203132608B2
:102F7C0083160317D1008312031325088316031736
:102F8C00D00083120313240883160317CF00080004
:102F9C0083120313270883160313A300831203134E
:102FAC00260883160313A200831203132508831625
:102FBC000313A10083120313240883160313A00028
:102FCC00080083120313981CEC2FED2FF52F83169A
:102FDC000313981298168312031318121816181D3F
:102FEC00F82FF92FFF2F1A08E700831603139812F6
:042FFC00981608001B
:08400000FF3FFF3FFF3FFF3FC0
:04400E00F320FF3F5D
:00000001FF
